:1000000003308A00C72B0000FF00030E8301A1000C
:100010000A08A0008A010408A2007708A300780853
:10002000A4007908A5007A08A600831383128B1E0A
:100030001B280B192C28220884002308F700240809
:10004000F8002508F9002608FA0020088A00210E89
:100050008300FF0E7F0E09008A110A1280280A1001
:100060008A100A1182070834003400340134023443
:1000700004340A108A100A1182070034083401344B
:100080000034003400340A108A100A118207003448
:10009000013408340034003400340A108A100A1184
:1000A00082070134003400340834103420340A103C
:1000B0008A100A11820704340334023401340034F4
:1000C0000A108A100A118207033402340134003402
:1000D00000340A108A100A118207023401340034F5
:1000E000013400340A108A100A1182073F340634A2
:1000F0005B344F3466346D347D3407347F346F3471
:100100000108833ED00050088100C90A0319CA0AB9
:1001100028084A02031CFC28031D922827084902CC
:10012000031CFC28CA01C901C50A0319C60AC6086E
:10013000031D9D284508033C031CBC1435083604E8
:100140000319A62835080319B603B5033308340488
:100150000319F3283C1CF328A90A0319AA0A391C1D
:10016000B7282B082C040319B728B401B301B91C14
:10017000BF282D082E040319BF28B401B301391D6F
:10018000C7282F0830040319C728B401B301B91DCB
:10019000CF28310832040319CF28B401B30139182C
:1001A000D7282B082C04031DD728B401B301B91894
:1001B000DF282D082E04031DDF28B401B3013919EF
:1001C000E7282F083004031DE728B401B301B9194B
:1001D000EF2831083204031DEF28B401B3013910B0
:1001E000B9103911B911C608031DFA284508053C94
:1001F0000318FC28C601C5010B118A110A121B281D
:10020000450B0529C60803190C294508023C031DA6
:100210004329C608031D43298316861383128613B8
:1002200083160612831206124708480403192D2963
:1002300083160613831206138316861283128616FC
:100240004608FA0045083920CB008316880183123E
:100250004B088800C801C701422983168612831201
:10026000861283160613831206174608FA004508FD
:100270004320CB008316880183124B088800C801F5
:100280000130C700792983168612831286128316DD
:1002900006138312061347084804031964298316BA
:1002A00086138312861383160612831206164608D7
:1002B000FA0045082F20CB008316880183124B08D3
:1002C0008800C801C7017929831606128312061215
:1002D00083168613831286174608FA0045084D20B8
:1002E000CB008316880183124B088800C8010130B7
:1002F000C7008A110A12152CBC1C9E29831686156C
:10030000831286198629B4010430B30083160615BA
:10031000831206198E29B4010330B30083168614A4
:10032000831286189629B4010230B300831606148E
:10033000831206189E29B4010130B3003308340437
:100340000319DF29831686138312861383168612F8
:10035000831286128316061383120613831606125F
:1003600083120612B6010430B5000310A70DA80DC4
:100370008316061283120616350836040319DC2983
:10038000831606128312061601303502CB0036089A
:10039000CC000030031C0130CC024C08FA004B08A2
:1003A0007220CD008316880183124D0888008316C1
:1003B000061283120612BC290310A80CA70C8A117E
:1003C0000A12162C061EF72983160612831206122D
:1003D00083168612831286162E08FA002D087220C4
:1003E000CB008316880183124B088800332A861EAF
:1003F0000C2A831686128312861283160613831222
:1004000006173008FA002F087220CB0083168801E7
:1004100083124B088800332A061F212A83160613ED
:100420008312061383168613831286173208FA0086
:1004300031087220CB008316880183124B08880094
:10044000332A8316861383128613831606128312A9
:1004500006162C08FA002B087220CB0083168801A0
:1004600083124B08880008008316861583128619AC
:100470003D2A391A3D2A3914391683160615831276
:100480000619462AB91A462AB914B91683168614CB
:10049000831286184F2A391B4F2A391539178316AC
:1004A000061483120618582AB91B582AB915B91709
:1004B000391E672A3D080319BE03BD033D083E04EB
:1004C000031D672A3B08BE003A08BD003912B91E59
:1004D000762A3F080319C003BF033F084004031DE9
:1004E000762A3B08C0003A08BF00B912391F852A96
:1004F00041080319C203C10341084204031D852AB0
:100500003B08C2003A08C1003913B91F942A4308B6
:100510000319C403C30343084404031D942A3B087E
:10052000C4003A08C300B91308002A08FA002908D1
:100530005720F800FA017808AB007A08AC002A08C6
:10054000FA0029086020F800FA017808AD007A085E
:10055000AE002A08FA0029086020F800FA0178089D
:10056000AF007A08B0002A08FA0029086920F800CC
:10057000FA017808B1007A08B200E22134228A1127
:100580000A12232CF801F901F701FA014E08031DA4
:10059000CC2A4D080319E62A1030CF000310CB0DEA
:1005A000CC0DF70DFA0D4E087A02031DD92A4D081D
:1005B0007702031CE22A4D08F702031CFA034E08D7
:1005C000FA020314F80DF90DCF0BCE2A080083169A
:1005D000861383128613831686128312861283165D
:1005E0000613831206138316061283120612B6012F
:1005F0000730B50083160612831206163508360436
:1006000003193F2B83160612831206163608CC00F8
:100610003508CB00CE010330CD00C2227708CB00D5
:100620007A08CC00CB08031D1E2BCC08031D1E2B03
:1006300083168801F930831288003A2B3608CC00E3
:100640003508CB00CE010330CD00C2227708CB00A5
:100650007A08CC004B0B352BCC08031D352B8316A9
:100660008801F630831288003A2B831688013F30C8
:10067000831288008316061283120612FE2A0800CF
:100680002A08FA0029085720F800FA017808AB0078
:100690007A08AC002A08FA0029086020F800FA015C
:1006A0007808AD007A08AE002A08FA002908602010
:1006B000F800FA017808AF007A08B0002A08FA00BA
:1006C00029086920F800FA017808B1007A08B20018
:1006D000E22134228A110A12352C2A08FA0029084C
:1006E0005720F800FA017808AB007A08AC002A0815
:1006F000FA0029086020F800FA017808AD007A08AD
:10070000AE002A08FA0029086020F800FA017808EB
:10071000AF007A08B0002A08FA0029086920F8001A
:10072000FA017808B1007A08B200E22134228A1175
:100730000A12472C2A08FA0029085720F800FA0163
:100740007808AB007A08AC002A08FA002908602073
:10075000F800FA017808AD007A08AE002A08FA001D
:1007600029086020F800FA017808AF007A08B00084
:100770002A08FA0029086920F800FA017808B1006F
:100780007A08B200E22134228A110A12592C030895
:100790001F3983000330A800E830A700AA01A9018F
:1007A000B401B301B8013230B7003910B9103911B2
:1007B000B9113912B9123913B913BB01C830BA00D3
:1007C0003C10BC103B08BE003A08BD003B08C0000E
:1007D0003A08BF003B08C2003A08C1003B08C40009
:1007E0003A08C300C601C501C801C701CA01C90151
:1007F00083161F149F141F159F1107309C0083132D
:100800000108C0390238810083128B16C0308B0476
:100810008316880183128801B401B301B308031D54
:100820005C2CB408031D5C2C00297C29330B262C7E
:10083000B408031D262CAA01A9013C143308340472
:100840000319242C952A1E2C3C10E7223308023C65
:10085000031D382CB408031D382CAA01A9013C142F
:10086000330834040319362C402B302C3C10E7227B
:100870003308033C031D4A2CB408031D4A2CAA016B
:10088000A9013C14330834040319482C6D2B422C65
:100890003C10E7223308043C031D5C2CB408031D04
:1008A0005C2CAA01A9013C143308340403195A2C06
:0C08B0009A2B542C3C10E7220E2C630005
:02400E00723905
:00000001FF
;PIC16F877A
;CRC=1BC9  CREATED="22-nov-24 21:19"
