:100000000D308A00402D0000FF00030E8301A10087
:100010000A08A0008A010408A2007708A300780853
:10002000A4007908A5007A08A600831383128B1E0A
:100030001B280B192C28220884002308F700240809
:10004000F8002508F9002608FA0020088A00210E89
:100050008300FF0E7F0E09008A110A122F2D0A104D
:100060008A100A1182070834003400340134023443
:1000700004344834403440344134423444340A1067
:100080008A100A1182070034083401340034003425
:1000900000340034483441340034003400340A1051
:1000A0008A100A1182070034013408340034003405
:1000B00000340034413448340034003400340A1031
:1000C0008A100A11820701340034003408341034D5
:1000D00020344134403440344834503460340A10C1
:1000E0008A100A11820704340334023401340034C4
:1000F0000334023401340034033402340134003454
:10010000033402340134003405340434033402343B
:10011000013400340534043403340234013400342F
:10012000083407340634053404340334023401340B
:1001300000340834073406340534043403340234FC
:1001400001340034053404340334023401340034FF
:100150000A340B340B340C340C340A108A100A1194
:100160008207033402340134003400340234013491
:1001700000340634053404340334023401340034CA
:1001800004340334023401340034023401340034C2
:1001900002340134003403340234013400340234B4
:1001A00001340034013400340134003404340334A5
:1001B0000234013400340234013400340534043490
:1001C00003340234013400340A340A340A340B3460
:1001D0000B340C340C340A108A100A11F23E031846
:1001E0008A0A8200033402340134003400340234B9
:1001F0000134003406340534043403340234013449
:10020000003402340134003405340434033402343D
:100210000134003402340134003402340134003437
:100220000734063405340434033402340134003412
:10023000053404340334023401340034023401340C
:100240000034013400340A340A340A340A340A34DB
:100250000B340B340C340C340A148A100A11820744
:1002600002340134003401340034013400340134E8
:1002700000340934083407340634053404340334B4
:1002800002340134003405340434033402340134BC
:1002900000340334023401340034033402340134B2
:1002A00000340234013400340434033402340134A1
:1002B000003408340734063405340434033402347B
:1002C000013400340A340A340A340A340B340B344F
:1002D0000C340C340A148A100A11820701340034D9
:1002E000053404340334023401340034023401345C
:1002F000003401340034053404340334023401344E
:100300000034023401340034013400340234013446
:100310000034013400340134003401340034013439
:10032000003408340734063405340434033402340A
:100330000134003407340634053404340334023401
:10034000013400340A340A340A340A340B340B34CE
:100350000B340C340C340A148A100A11820702344C
:1003600001340034033402340134003402340134E3
:1003700000340134003401340034033402340134D5
:1003800000340234013400340134003402340134C6
:1003900000340134003401340034013400340334B7
:1003A000023401340034083407340634053404348C
:1003B0000234013400340634053404340334023486
:1003C00001340034013400340A340A340A340B3462
:1003D0000B340B340C340C340A148A100A11F33E1B
:1003E00003188A0A820003340234013400340134D1
:1003F0000034033402340134003401340034023454
:100400000134003401340034033402340134003444
:100410000134003403340234013400340134003434
:100420000734063405340434033402340134003410
:100430000134003401340034023401340034053412
:1004400004340334023401340034033402340134FC
:1004500000340A340A340B340B340B340C340C34AF
:100460000A108A140A118207043403340234013456
:1004700000340534043403340234013400340434C9
:1004800003340234013400340534043403340234B8
:1004900001340034033402340134003401340034B4
:1004A0000134003407340634053404340334023490
:1004B0000134003401340034013400340134003498
:1004C0000434033402340134003405340434033476
:1004D0000234013400340A340B340B340B340C3442
:1004E0000C340A108A140A118207023401340034D1
:1004F0000234013400340234013400340234013453
:10050000003403340234013400340334023401343F
:100510000034023401340034013400340134003436
:100520000134003401340034033402340134003423
:10053000013400340434033402340134003406340A
:1005400005340434033402340134003402340134F9
:1005500000340234013400340534043403340234EA
:1005600001340034023401340034023401340034E4
:1005700002340134003402340134003404340334CE
:1005800002340134003402340134003405340434BC
:1005900003340234013400340234013400340134B1
:1005A00000340134003401340034013400340134A7
:1005B00000340B340B340B340C340C340A108A1412
:1005C0000A11E53E03188A0A82000234013400341D
:1005D0000234013400340234013400340234013472
:1005E000003403340234013400340334023401345F
:1005F000003404340334023401340034033402344C
:100600000134003403340234013400340134003442
:100610000134003402340134003401340034013434
:10062000003404340334023401340034023401341D
:100630000034053404340334023401340034023409
:100640000134003402340134003402340134003403
:1006500002340134003402340134003403340234EF
:1006600001340034013400340234013400340334E2
:1006700002340134003402340134003402340134D1
:100680000034013400340A340A340A340A340A3497
:100690000A340B340B340B340C340C340A148A1423
:1006A0000A11820702340134003402340134003468
:1006B000023401340034023401340034033402348F
:1006C0000134003406340534043403340234013474
:1006D0000034033402340134003401340034013472
:1006E0000034013400340234013400340134003465
:1006F0000134003403340234013400340134003452
:100700000234013400340534043403340234013437
:100710000034023401340034023401340034023431
:100720000134003402340134003402340134003422
:10073000023401340034023401340034033402340E
:100740000134003402340134003401340034023402
:1007500001340034033402340134003401340034F1
:10076000013400340A340A340A340A340B340B34AA
:100770000B340C340C340A148A140A11C23E0318C8
:100780008A0A820002340134003402340134003415
:1007900002340134003402340134003403340234AE
:1007A000013400340334023401340034023401349F
:1007B0000034013400340134003403340234013491
:1007C0000034013400340234013400340134003484
:1007D000073406340534043403340234013400345D
:1007E0000534043403340234013400340234013457
:1007F0000034023401340034023401340034023451
:100800000134003402340134003402340134003441
:100810000234013400340134003405340434033428
:10082000023401340034023401340034023401341F
:10083000003404340334023401340034013400340D
:1008400001340034013400340A340A340B340B34DC
:100850000B340C340C340A108A100A158207063443
:1008600005340434033402340134003401340034D8
:1008700007340634053404340334023401340034BC
:1008800003340234013400340234013400340334BC
:10089000023401340034073406340534043403349C
:1008A000023401340034073406340534043403348C
:1008B0000234013400340534043403340234013486
:1008C00000340A340A340B340B340C340C340A1060
:1008D0008A100A15820705340434033402340134C3
:1008E000003401340034013400340534043403345A
:1008F000023401340034033402340134003404344B
:10090000033402340134003403340234013400343B
:10091000033402340134003401340034013400342F
:100920000134003403340234013400340634053415
:10093000043403340234013400340A340A340B34EE
:100940000B340C340C340A108A100A158207043454
:1009500003340234013400340534043403340234E3
:1009600001340034013400340134003403340234DF
:1009700001340034063405340434033402340134C1
:1009800000340334023401340034013400340134BF
:1009900000340334023401340034013400340134AF
:1009A000003407340634053404340334023401348B
:1009B00000340A340A340B340B340C340C340A106F
:1009C0008A100A15E63E03188A0A820003340234AC
:1009D000013400340734063405340434033402345B
:1009E000013400340134003403340234013400345F
:1009F0000834073406340534043403340234013433
:100A00000034033402340134003409340834073428
:100A10000634053404340334023401340034083419
:100A2000073406340534043403340234013400340A
:100A30000A340A340B340B340C340C340A148A1084
:100A40000A1582073F3406345B344F3466346D3404
:100A50007D3407347F346F34083448344934010816
:100A6000833EDA005A088100CB0A0319CC0A280811
:100A70004C02031CB52D031D412D27084B02031CFE
:100A8000B52DCC01CB01BC11C50A0319C60A350826
:100A9000360403194F2D35080319B603B50333087F
:100AA00034040319AC2D3C1CAC2DA90A0319AA0A65
:100AB000391C622DAB08031D602DAC080319622D93
:100AC000B401B301B91C6C2DAD08031D6A2DAE082D
:100AD00003196C2DB401B301391D762DAF08031D28
:100AE000742DB0080319762DB401B301B91D802D02
:100AF000B108031D7E2DB2080319802DB401B30186
:100B000039188A2DAB08031D8A2DAC08031D8A2DC8
:100B1000B401B301B918942DAD08031D942DAE088E
:100B2000031D942DB401B30139199E2DAF08031D87
:100B30009E2DB008031D9E2DB401B301B919A82D37
:100B4000B108031DA82DB208031DA82DB401B301DF
:100B50003910B9103911B911C608031DB32D450854
:100B6000053C0318B52DC601C5010B118A110A12E7
:100B70001B28F701F801510803105218F707F70C6A
:100B8000F80CD218F707F70CF80C5219F707F70C06
:100B9000F80CD219F707F70CF80C521AF707F70CF4
:100BA000F80CD21AF707F70CF80C521BF707F70CE2
:100BB000F80CD21BF707F70CF80C0800F801F90144
:100BC000F701FA015408031DE82D53080319022EFA
:100BD0001030D5000310D10DD20DF70DFA0D5408C9
:100BE0007A02031DF52D53087702031CFE2D5308CE
:100BF000F702031CFA035408FA020314F80DF90D66
:100C0000D50BEA2D0800CE014D084E0203180A2E1E
:100C1000CE0A042E0800450B102EC6080319172E05
:100C20004508023C031D762EC608031D762E83164A
:100C3000861383128613831606128312061249083E
:100C40004A0403194C2E83160613831206138316C7
:100C50008612831286163C1B382E4608FA00450879
:100C60003F20CD008316880183124D088800492E4D
:100C700006304507CD004608CE000318CE0A4E08C0
:100C8000FA004D083F20CF008316880183124F08D9
:100C90008800CA01C901752E831686128312861236
:100CA0008316061383120617BC1A612E4608FA0033
:100CB00045084F20CD008316880183124D08880017
:100CC000722E06304507CD004608CE000318CE0A26
:100CD0004E08FA004D084F20CF008316880183127A
:100CE0004F088800CA010130C900D42E831686122D
:100CF00083128612831606138312061349084A04C8
:100D00000319AB2E831686138312861383160612DD
:100D100083120616BC1B972E4608FA0045082F20A2
:100D2000CD008316880183124D088800A82E063056
:100D30004507CD004608CE000318CE0A4E08FA003B
:100D40004D082F20CF008316880183124F0888009A
:100D5000CA01C901D42E8316061283120612831605
:100D60008613831286173C1AC02E4608FA004508DF
:100D70005F20CD008316880183124D088800D12E94
:100D800006304507CD004608CE000318CE0A4E08AF
:100D9000FA004D085F20CF008316880183124F08A8
:100DA0008800CA010130C9002330CD0003268A150E
:100DB0000A12C02D1030D500F701FA01D20CD10C67
:100DC000031CE82E5308F7070318FA0A5408FA0719
:100DD000FA0CF70CF90CF80CD50BDE2E8A150A125A
:100DE000E72D1930CD000326061E092F83160612A3
:100DF0008312061283168612831286162E08FA00B4
:100E00002D081E25CD008316880183124D08880009
:100E1000452F861E1E2F8316861283128612831676
:100E20000613831206173008FA002F081E25CD007E
:100E30008316880183124D088800452F061F332F23
:100E400083160613831206138316861383128617DE
:100E50003208FA0031081E25CD008316880183125E
:100E60004D088800452F8316861383128613831638
:100E70000612831206162C08FA002B081E25CD0038
:100E80008316880183124D08880008008316861592
:100E9000831286194E2FB4010430B3008316061551
:100EA00083120619562FB4010330B300831686143B
:100EB000831286185E2FB4010230B3008316061425
:100EC00083120618662FB4010130B30033083404CE
:100ED00003199F2F83168613831286138316861297
:100EE00083128612831606138312061383160612C4
:100EF00083120612B6010330B5000310A70DA80D2A
:100F00008316061283120616B508031D8A2FB6082B
:100F100003199C2F3608AC003508AB00AE010C302D
:100F2000AD00B001AF003608B2003508B100F126BF
:100F30001E30CD000326842F0310A80CA70C8A15A1
:100F40000A12EE2D8E30F7004E08F8004D08F90019
:100F5000FA01F808031DB62F7908F800F9010830E6
:100F6000F702F808031DB62FF701BE2F0310F81B78
:100F7000BD2FF90DF80DF703B62FF81308008E30CA
:100F8000F7004D08F7024E08F9004F08F800F9176E
:100F9000F7080319D62F0310F908031DD22FF808FC
:100FA0000319D62FF90CF80CF70BCB2FCE1FDD2F22
:0C0FB000F809F909F80A0319F90A080009
:1010000083168615831286190928391A0928391476
:10101000391683160615831206191228B91A1228D2
:10102000B914B91683168614831286181B28391B27
:101030001B2839153917831606148312061824281D
:10104000B91B2428B915B917391E33283D080319CF
:10105000BE03BD033D083E04031D33283B08BE000C
:101060003A08BD003912B91E42283F080319C003CF
:10107000BF033F084004031D42283B08C0003A0854
:10108000BF00B912391F512841080319C203C10317
:1010900041084204031D51283B08C2003A08C10020
:1010A0003913B91F602843080319C403C303430855
:1010B0004404031D60283B08C4003A08C300B91368
:1010C00008004D080319D128D50051080319D1286B
:1010D000D507031872287F30D502031CD1280319C5
:1010E000D12876288130D5070318D1285508F70074
:1010F000F801F901FA014E08D900D9174F08D800B4
:101100005008D7001830D500D601571C9F28540826
:10111000FA07031C9128F90A031D9128F80A0319FC
:10112000D6175308F907031C9828F80A0319D6178D
:101130005208CF00CF174F08F8070318D617D60D5F
:10114000F80CF90CFA0CD90CD80CD70C0310D50BF1
:1011500084280130F7070318D128F81BB628D90DC9
:10116000FA0DF90DF80DF7030319D128D91FC72877
:10117000FA0A031DC728F90A031DC728F80A031D28
:10118000C728F80CF90CFA0CF70A0319D1284E08F5
:10119000D6005208D606D61FCF28F817D528F81340
:1011A000D528F701F801F901FA010800AA08031D82
:1011B0000E2929082E3C031C0E292A08FA002908AA
:1011C0008A116F208A15F800FA017808AB007A08B6
:1011D000AC002A08FA0029088A11AD208A15F80007
:1011E000FA017808AD007A08AE002A08FA0029084A
:1011F0008A11EB208A15F800FA017808AF007A0806
:10120000B0002A08FA0029088A112C218A15F80052
:10121000FA017808B1007A08B20062292F30290259
:10122000CD002A08CE000030031C0130CE024E084B
:10123000FA004D088A116F208A15F800FA01780823
:10124000AB007A08AC002F302902CD002A08CE006E
:101250000030031C0130CE024E08FA004D088A11FE
:10126000AD208A15F800FA017808AD007A08AE00C2
:101270002F302902CD002A08CE000030031C013097
:10128000CE024E08FA004D088A11EB208A15F800AC
:10129000FA017808AF007A08B0002F302902CD009B
:1012A0002A08CE000030031C0130CE024E08FA009E
:1012B0004D088A112C218A15F800FA017808B1002E
:1012C0007A08B2008A11F1268A1500202908323CDA
:1012D000031D9729AA08031D9729BC1897292808D8
:1012E000CE002708CD008A11A2278A157A08D000DF
:1012F0007908CF007808CE007708CD009A30D40066
:101300009930D3005930D2007E30D10061207A0864
:10131000D0007908CF007808CE007708CD008A1178
:10132000BF278A157908A8007808A700BC142908E7
:101330004B3C031DC829AA08031DC8293C19C8290C
:101340002808CE002708CD008A11A2278A157A081E
:10135000D0007908CF007808CE007708CD009A3009
:10136000D4009930D3005930D2007E30D1006120B2
:101370007A08D0007908CF007808CE007708CD0031
:101380008A11BF278A157908A8007808A7003C159C
:1013900005304707F8004808FA000318FA0A7808E9
:1013A0002902031DD9297A082A02031DD929B4016B
:1013B000B3018A150A12022EB6010730B500AC013E
:1013C0000C30AB002A08D2002908D100D4010A3021
:1013D000D3008A11DE258A1577087A040319312A89
:1013E0002A08D2002908D100D4010A30D3008A117A
:1013F000DE258A157708003CCD00CE017A08031C53
:101400007A0FCE020A304D07AD004E08AE00031829
:10141000AE0A2A08D2002908D100D4010A30D3002C
:101420008A11DE258A157908CE007808CD00790862
:10143000D2007808D100D4010A30D3008A11DE2509
:101440008A157708003CCD00CE017A08031C7A0F7C
:10145000CE0209304D07AF004E08B0000318B00AA5
:101460005A2AAE01AD012A08D2002908D100D401C0
:101470000A30D3008A11DE258A157908CE00780853
:10148000CD007908D2007808D100D4010A30D30009
:101490008A11DE258A157708003CCD00CE017A0836
:1014A000031C7A0FCE020A304D07AF004E08B00081
:1014B0000318B00AB2010C30B10035083604031924
:1014C0006A2A8A11F1268A150F30CD008A11032667
:1014D0008A155D2A0800AA08031DA32A2908203CB2
:1014E000031CA32A2A08FA0029088A116A218A15EE
:1014F000F800FA017808AB007A08AC002A08FA0074
:1015000029088A11AB218A15F800FA017808AD0084
:101510007A08AE002A08FA0029088A11EC218A15F7
:10152000F800FA017808AF007A08B0002A08FA003B
:1015300029088A1130228A15F800FA017808B100CA
:101540007A08B200F72A21302902CD002A08CE00FD
:101550000030031C0130CE024E08FA004D088A11FB
:101560006A218A15F800FA017808AB007A08AC0005
:1015700021302902CD002A08CE000030031C0130A2
:10158000CE024E08FA004D088A11AB218A15F800E8
:10159000FA017808AD007A08AE0021302902CD00AA
:1015A0002A08CE000030031C0130CE024E08FA009B
:1015B0004D088A11EC218A15F800FA017808AF006D
:1015C0007A08B00021302902CD002A08CE00003070
:1015D000031C0130CE024E08FA004D088A11302259
:1015E0008A15F800FA017808B1007A08B2008A1169
:1015F000F1268A15002029080C3C031D2A2BAA0875
:10160000031D2A2BBC182A2B2808CE002708CD0042
:101610008A11A2278A157A08D0007908CF007808A5
:10162000CE007708CD006630D400D300D2007E30E3
:10163000D10061207A08D0007908CF007808CE0068
:101640007708CD008A11BF278A157908A800780885
:10165000A700BC142908183C031D392BAA08031D38
:10166000392B3C19392B3808A8003708A7003C153E
:10167000BC102908303C031D6B2BAA08031D6B2BE3
:10168000BC186B2B2808CE002708CD008A11A22792
:101690008A157A08D0007908CF007808CE0077083C
:1016A000CD00CD30D400CC30D3004C30D2007E30D1
:1016B000D10061207A08D0007908CF007808CE00E8
:1016C0007708CD008A11BF278A157908A800780805
:1016D000A7003C11BC142908483C031D9B2BAA08F9
:1016E000031D9B2B3C199B2B2808CE002708CD00FF
:1016F0008A11A2278A157A08D0007908CF007808C5
:10170000CE007708CD006630D400D300D2007E3002
:10171000D10061207A08D0007908CF007808CE0087
:101720007708CD008A11BF278A157908A8007808A4
:10173000A7003C15BC102908603C031DCA2BAA0851
:10174000031DCA2BBC18CA2B2808CE002708CD00C1
:101750008A11A2278A157A08D0007908CF00780864
:10176000CE007708CD006630D400D300D2007E30A2
:10177000D10061207A08D0007908CF007808CE0027
:101780007708CD008A11BF278A157908A800780844
:10179000A700BC1405304707F8004808FA000318F2
:1017A000FA0A78082902031DDB2B7A082A02031D96
:1017B000DB2BB401B3018A150A123D2E2A08FA0068
:1017C00029088A1171228A15F800FA017808AB00FD
:1017D0007A08AC002A08FA0029088A11DE228A1544
:1017E000F800FA017808AD007A08AE002A08FA007D
:1017F00029088A114E238A15F800FA017808AF00EB
:101800007A08B0002A08FA0029088A11BB238A1531
:10181000F800FA017808B1007A08B2008A11F126BE
:101820008A15002001302907CD002A08CE000318B0
:10183000CE0A4E08D2004D08D100D4010330D300A7
:101840008A11DE258A157708CD007A08CE00CD08EA
:10185000031D5F2CCE08031D5F2CBC185F2CAA084B
:10186000031D5F2C29081D3C031C5F2C2808CE009B
:101870002708CD008A11A2278A157A08D000790896
:10188000CF007808CE007708CD00D730D400A33041
:10189000D3007030D2007E30D10061207A08D000B1
:1018A0007908CF007808CE007708CD008A11BF27CD
:1018B0008A157908A8007808A700BC143C110130EB
:1018C0002907CD002A08CE000318CE0A0330CD0523
:1018D000CE01CD08031D882CCE08031D882C3C1991
:1018E000882C01302907CD002A08CE000318CE0A23
:1018F0004E08D2004D08D100D4010C30D3008A111B
:10190000DE258A1577087A040319882CBC103C154B
:1019100005304707F8004808FA000318FA0A780863
:101920002902031D992C7A082A02031D992CB4015F
:10193000B3018A150A12782EAA08031DD42C29088F
:10194000313C031CD42C2A08FA0029088A112B24C4
:101950008A15F800FA017808AB007A08AC002A086A
:10196000FA0029088A1167248A15F800FA01780814
:10197000AD007A08AE002A08FA0029088A11A324CB
:101980008A15F800FA017808AF007A08B0002A0832
:10199000FA0029088A11DF248A15F800FA0178086C
:1019A000B1007A08B200282D32302902CD002A0871
:1019B000CE000030031C0130CE024E08FA004D0864
:1019C0008A112B248A15F800FA017808AB007A08EE
:1019D000AC0032302902CD002A08CE000030031CB2
:1019E0000130CE024E08FA004D088A1167248A158C
:1019F000F800FA017808AD007A08AE00323029020A
:101A0000CD002A08CE000030031C0130CE024E0863
:101A1000FA004D088A11A3248A15F800FA01780803
:101A2000AF007A08B00032302902CD002A08CE007B
:101A30000030031C0130CE024E08FA004D088A1116
:101A4000DF248A15F800FA017808B1007A08B2009C
:101A50008A11F1268A15002005304707F80048084A
:101A6000FA000318FA0A78082902031D3D2D7A08A6
:101A70002A02031D3D2DB401B3018A150A12DA2E84
:101A800003081F3983000330A800E830A700AA012B
:101A9000A901B401B3013910B9103911B9113912C2
:101AA000B9123913B913BB01C830BA003C10BC10CD
:101AB0003C11BC113B08BE003A08BD003B08C00009
:101AC0003A08BF003B08C2003A08C1003B08C40006
:101AD0003A08C300C601C501C8016430C700CA0185
:101AE000C9013C12BC123C13BC13CC01CB018316C0
:101AF0001F149F141F159F1107309C0083130108AA
:101B0000C0390238810083128B16C0308B048316D3
:101B1000880183128801B401B301B308031D002FAB
:101B2000B408031D002F00303C1A0130CE000030F5
:101B3000BC1A01304E07CF0000303C1B01304F076C
:101B4000D0000030BC1B01305007CD000330D10065
:101B50004D08D2008A11B9258A1505307807CD00C5
:101B60002808D2002708D100D4014D08D3008A11DB
:101B7000DE258A157908A8007808A7008A110B2E9F
:101B80008A1500303C1A0130CE000030BC1A0130FA
:101B90004E07CF0000303C1B01304F07D000003013
:101BA000BC1B01305007CD000330D1004D08D200DE
:101BB0008A11B9258A1505307807CD002808D2008A
:101BC0002708D100D4014D08D3008A11DA2E8A15D6
:101BD0007908A8007808A7008A11462F8A15330BC8
:101BE000282EB408031D282EAA01A9013C14280898
:101BF000B8002708B700BC103C113308340403199F
:101C0000032ED628FD2D3C102A084802031C112E55
:101C1000031D0E2E470829020318112EDC21AA01EC
:101C2000A90104304707F8004808FA000318FA0A27
:101C30007A082A02031C222E031D212E780829026D
:101C400003183C163808A8003708A700B401B301F0
:101C50003308023C031D632EB408031D632EAA0142
:101C6000A9013C142808B8002708B700BC103C1193
:101C70003308340403193E2E6B2A382E3C102A08F0
:101C80004802031C4C2E031D492E47082902031845
:101C90004C2EDC21AA01A90104304707F8004808AE
:101CA000FA000318FA0A7A082A02031C5D2E031DA3
:101CB0005C2E780829020318BC163808A8003708DB
:101CC000A700B401B3013308033C031D9E2EB408E2
:101CD000031D9E2EAA01A9013C142808B80027085C
:101CE000B700BC103C11330834040319792EDE2BE5
:101CF000732E3C102A084802031C872E031D842ED5
:101D0000470829020318872EDC21AA01A901043003
:101D10004707F8004808FA000318FA0A7A082A0266
:101D2000031C982E031D972E7808290203183C17D0
:101D30003808A8003708A700B401B3013308043CF1
:101D4000031D002FB408031D002FAA01A9013C1494
:101D50002808B8002708B700BC103C112808CE009E
:101D60002708CD008A11A2278A157A08D0007908A1
:101D7000CF007808CE007708CD009A30D400993093
:101D8000D3001930D2007E30D10061207A08D00013
:101D90007908CF007808CE007708CD008A11BF27D8
:101DA0008A157908A8007808A700330834040319B5
:101DB000DB2E9C2CD52E3C102A084802031CE92E51
:101DC000031DE62E470829020318E92EDC21AA018B
:101DD000A90104304707F8004808FA000318FA0A76
:101DE0007A082A02031CFA2E031DF92E780829020C
:101DF0000318BC173808A8003708A700B401B301BE
:081E0000AA01A9018D2D630068
:02400E00713906
:00000001FF
;PIC16F877A
;CRC=477E  CREATED="30-nov-24 14:25"
