:1000000002308A00592A0000FF00030E8301A50078
:100010007F08A4000A08AB008A01A40E0408A60009
:100020002008A7002108A8002208A9002308AA0088
:10003000831383128B1E1E280B192F282608840079
:100040002708A0002808A1002908A2002A08A30068
:100050002B088A00250E8300FF0E7F0E09008A11EF
:100060009F280A108A100A1182073F3406345B3435
:100070004F3466346D347D3407347F346F340A1066
:100080008A100A1182070234033405340734093414
:100090000634083404340234033406340934073493
:1000A00004340534083402340334073406340A10A7
:1000B0008A100A11820704340634083409340734DC
:1000C0000534033402340934063408340734033465
:1000D00005340434093402340634083407340A1071
:1000E0008A100A11820709340834073406340534AB
:1000F0000434033402340934083404340534073436
:1001000003340934063408340234053404340A1044
:100110008A100A1182070334053407340234083484
:100120000434063409340334073408340634023402
:100130000534093404340734033406340834010820
:10014000063EC80048088100B30BA9280130B3005F
:10015000341435080319B603B50335083604031DF6
:10016000B6282D08B6002C08B500B4140B118A115E
:100170001E28A101A201A001A3014508031DC32857
:1001800044080319DD281030C6000310C20DC30D4A
:10019000A00DA30D45082302031DD028440820020A
:1001A000031CD9284408A002031CA3034508A3028A
:1001B0000314A10DA20DC60BC52808004130840010
:1001C00000080319F1280130A100A001A00BE628C6
:1001D000A10BE5284A30A000A00BEC28EF28800BEB
:1001E000E32808003A08FC3E03181F29043E302982
:1001F0000F30831686008312061283168600831240
:1002000086171F290F3083168600831286138316E4
:100210008600831206171F290F308316860083126B
:10022000061383168600831286161F290F30831645
:1002300086008312861283168600831206163B30D0
:100240003A07840000083120C00083168801831219
:1002500040088800BA0A3A08033C031CBA010800A7
:100260000A148A100A118207F82802290C29162973
:1002700006183E29061C3A290130B900861844297F
:10028000861C40290230B90006194A29061D462954
:100290000330B90086195029861D4C290430B90055
:1002A0008A11EB2A01303902FC3E0318A229043ED0
:1002B000AC29C0014008033C031C67293B304007C0
:1002C000840040083F20A1008000C00A5A29013064
:1002D000AD004D30AC00A229C1014108033C031C14
:1002E0007A293B304107840041085720A100800053
:1002F000C10A6D290130AD000E30AC00A229C20147
:100300004208033C031C8D293B304207840042080D
:100310006F20A1008000C20A8029AD01C830AC0066
:10032000A229C3014308033C031C9F293B30430718
:10033000840043088720A1008000C30A9229AD01F0
:100340009630AC002D08B6002C08B500B410013072
:10035000B30034148A11F02A0A148A100A11820791
:1003600059296C297F299129C0014008033C031CAD
:10037000C5293B304007840080080319B9013B3090
:10038000400784008003C00AB5298A11042B430862
:100390000739A000430CA100A10CA10C1F30A1053E
:1003A000210845078400A101A10AA00AD829A10DAE
:1003B000A00BD729C4080319E02921088004E329E8
:1003C000A10921088005080043080739A000430C53
:1003D000A100A10CA10C1F30A10521084407840035
:1003E0000008A100A00AF529A10CA00BF4290130F6
:1003F000A1058A110F2AC10803190A2A2E304207C3
:100400008400643080004208C300C4013230C5005B
:10041000C7212A2A4208C3003230C400E429211827
:100420002A2A2E304207840080032E30420784009F
:100430008008031D2A2A2E30420784006430800081
:100440004208C3000130C4003230C500C72101306A
:10045000A1002C2A0030A1000800BF0A3F08133C6D
:10046000031CBF0101303902FC3E0318502A043E30
:10047000512A3F083F20A100A100502A502A3F08DE
:100480005720A100A100502A502A3F086F20A10048
:10049000A100502A502A3F088720A100A100502A1D
:1004A00008000A108A140A118207392A3F2A452AAD
:1004B0004B2A03081F398300B3013410B601B5017C
:1004C000B410B801B701B901BA01BF0183161F14F6
:1004D0009F141F159F1107309C008312AE01AF01BE
:1004E000B001B101B201BB01BC01BD01BE01831667
:1004F0000108C0390338810083128B16C0308B0489
:100500000F308316860083128600831688018312BB
:10051000880183168600831286170330BF003808CF
:10052000C3003708C2000330C500E830C400B9205A
:100530002208C1002108C0002208C3002108C2000F
:10054000C5010A30C400B9202008BB003808C30028
:100550003708C200C5016430C400B9202208C100B8
:100560002108C0002208C3002108C200C5010A30CA
:10057000C400B9202008BC003808C3003708C200F6
:10058000C5010A30C400B9202208C1002108C000FA
:100590002208C3002108C200C5010A30C400B920E6
:1005A0002008BD003808C3003708C200C5010A3062
:1005B000C400B9202008BE000230C000FA30C100DB
:1005C000DE20C00BDE2AB908031DEC2A341CEA2AFF
:1005D0003410F2203829E32A6430C100DE20522989
:1005E000B801B701B90803195C2BB808031DFB2A31
:1005F0003708183C031CB901341C002B3410F220BE
:10060000B41C042BB410B429003006180130C0000B
:10061000C100C201FB21A1080319192BBB08031D4E
:10062000182BB70A0319B80A2D222108BB00192B71
:10063000B901003086180130C000C1000130C2008D
:10064000FB21A10803192F2BBC08031D2E2BB70A71
:100650000319B80A2D222108BC002F2BB901003044
:1006600006190130C000C1000230C200FB21A10800
:100670000319452BBD08031D442BB70A0319B80AFB
:100680002D222108BD00452BB9010030861901300B
:10069000C000C1000330C200FB21A10803195B2B7D
:1006A000BE08031D5A2BB70A0319B80A2D222108C8
:0C06B000BE005B2BB901F22A802A630017
:02400E00713F00
:00000001FF
;PIC16F874A
;CRC=BC9B  CREATED="12-dez-24 23:47"
