:1000000009308A0078290000FF00030E8301A10057
:100010000A08A0008A010408A2007708A300780853
:10002000A4007908A5007A08A600831383128B1E0A
:100030001B280B192C28220884002308F700240809
:10004000F8002508F9002608FA0020088A00210E89
:100050008300FF0E7F0E09008A110A12CB2A0A10B4
:100060008A100A1182070834003400340134023443
:1000700004344834403440344134423444340A1067
:100080008A100A1182070034083401340034003425
:1000900000340034483441340034003400340A1051
:1000A0008A100A1182070034013408340034003405
:1000B00000340034413448340034003400340A1031
:1000C0008A100A11820701340034003408341034D5
:1000D00020344134403440344834503460340A10C1
:1000E0008A100A11820704340334033403340534BC
:1000F0000534083408340434033403340334053439
:1001000005340834083405340A340B340B340C3409
:100110000C340A108A100A118207033400340234A6
:10012000063404340234023403340234013401341A
:100130000434023405340034023406340434023406
:1001400002340334023401340134043402340534FB
:100150000A340A340A340B340B340C340C340A10CD
:100160008A100A1182070334003402340634023440
:1001700005340234023407340534023403340234C3
:1001800006340034023405340234023407340534B2
:10019000023401340A340A340A340A340A340B347F
:1001A0000B340C340C340A108A100A118207023402
:1001B0000134013401340934053403340334023486
:1001C000043408340134013401340934053403346F
:1001D00003340234043408340A340A340A340A3446
:1001E0000B340B340C340C340A108A100A11FB3E09
:1001F00003188A0A820001340534023401340534BC
:100200000234013402340134013401340134053440
:10021000023401340534023401340234013401342F
:100220000134013408340734063404340A340A34FF
:100230000A340A340B340B340B340C340C340A14E7
:100240008A100A1182070234033402340134013463
:1002500003340234013402340134013401340334F0
:1002600003340234013401340234023401340234E0
:1002700001340134013403340834063401340634C3
:1002800004340A340A340A340B340B340B340C347F
:100290000C340A148A100A1182070334013403341F
:1002A000013402340134033401340334013407349B
:1002B000013403340134023401340334013403348F
:1002C0000134073401340134023405340334063474
:1002D00004340A340A340B340B340B340C340C342D
:1002E0000A148A100A1182070434053404340534D0
:1002F0000334013401340734053404340534033441
:100300000134013407340134013401340434053438
:10031000063404340A340B340B340B340C340C34F0
:100320000A148A100A118207023402340234023499
:10033000033403340234013401340134013403340E
:1003400001340434063402340234053402340234F5
:1003500002340234043402340534023401340134EA
:100360000134013401340B340B340B340C340C34B1
:100370000A148A100A118207023402340234023449
:1003800003340334043403340334013401340234B9
:1003900001340134043402340534023402340234AA
:1003A000023402340334013402340334023402349C
:1003B00001340A340A340A340A340A340A340B3455
:1003C0000B340B340C340C340A148A100A11EB3E33
:1003D00003188A0A820002340234023402340334DD
:1003E000063403340134013401340234013401345D
:1003F000033401340234053402340234023402344A
:10040000023402340234033402340134023403343B
:10041000013401340A340A340A340A340B340B34FC
:100420000B340C340C340A108A140A11820702347B
:10043000023402340234033403340234013401340C
:1004400003340134023401340734053402340234F5
:1004500002340234023402340234013405340234EA
:10046000023404340134013401340A340A340B34C4
:100470000B340B340C340C340A108A140A11820722
:1004800006340134073403340234033407340734A8
:10049000053406340134073403340234033407349A
:1004A000073405340A340A340B340B340C340C345E
:1004B0000A108A140A118207053401340134053404
:1004C0000334043403340334013401340134033479
:1004D0000634053401340134053403340434033460
:1004E0000334013401340134033406340A340A3449
:1004F0000B340B340C340C340A108A140A118207A2
:100500000434053401340134033406340334013433
:100510000134033401340134073404340534013424
:100520000134033406340334013401340334013418
:10053000013407340A340A340B340B340C340C34D1
:100540000A108A140A118207033407340134033471
:1005500008340334093408340334073401340334D1
:1005600008340334093408340A340A340B340B34A5
:100570000C340C340A108A140A1182073F340634F2
:100580005B344F3466346D347D3407347F346F34DC
:100590000834483449340108833EDB005B0881009D
:1005A000CC0A0319CD0A28084D02031CF12B031DA8
:1005B000DD2A27084C02031CF12BCD01CC01B4111C
:1005C000C90AB0080319ED2AB003BD01B901BE0183
:1005D000BA01BF01BB01C001BC01AF080319212B47
:1005E000341C212BA90A0319AA0A331CFA2AAB08C6
:1005F000031D082BB31CFF2AAC08031D082B331D59
:10060000042BAD08031D082BB31D092BAE08031DD9
:10061000AF0133180E2BAB0803191C2BB318132B87
:10062000AC0803191C2B3319182BAD0803191C2B0C
:10063000B3191D2BAE080319AF013310B3103311DA
:10064000B3114908053C031CC9012F0B2D2B390898
:100650006F20F8003D087802B5002F08023C031D0A
:10066000372B3908F420F8003D087802B5002F0830
:10067000033C031D412B39089021F8003D08780206
:10068000B5002F08043C031D4B2B39083C22F80011
:100690003D087802B5003508093C031C572BB50806
:1006A000031D552BB90ABD01562BBD0A582BB90A9B
:1006B0002F0B602B3A088920F8003E087802B6001C
:1006C0002F08023C031D6A2B3A081F21F8003E0840
:1006D0007802B6002F08033C031D742B3A08B8219A
:1006E000F8003E087802B6002F08043C031D7E2B5C
:1006F0003A085822F8003E087802B6003608093C4D
:10070000031C8A2BB608031D882BBA0ABE01892B4D
:10071000BE0A8B2BBA0A2F0B932B3B08AF20F80095
:100720003F087802B7002F08023C031D9D2B3B08B1
:100730004921F8003F087802B7002F08033C031D49
:10074000A72B3B08E421F8003F087802B7002F08E8
:10075000043C031DB12B3B087C22F8003F087802C3
:10076000B7003708093C031CBD2BB708031DBB2B82
:10077000BB0ABF01BC2BBF0ABE2BBB0A2F0BC62B6B
:100780003C08D320F80040087802B8002F08023C4B
:10079000031DD02B3C087021F80040087802B800F7
:1007A0002F08033C031DDA2B3C081322F8004008F5
:1007B0007802B8002F08043C031DE42B3C08A0225B
:1007C000F80040087802B8003808093C031CF02BF8
:1007D000B808031DEE2BBC0AC001EF2BC00AF12B99
:1007E000BC0A0B118A110A121B28F701F8015208E2
:1007F00003105318F707F70CF80CD318F707F70C8A
:10080000F80C5319F707F70CF80CD319F707F70C86
:10081000F80C531AF707F70CF80CD31AF707F70C74
:10082000F80C531BF707F70CF80CD31BF707F70C62
:10083000F80C0800F801F901F701FA015508031D49
:10084000242C540803193E2C1030D6000310D20D6E
:10085000D30DF70DFA0D55087A02031D312C5408FB
:100860007702031C3A2C5408F702031CFA035508BC
:10087000FA020314F80DF90DD60B262C0800CF014F
:100880004E084F020318462CCF0A402C0800490B93
:100890004A2C4E2C4908023C031D942C83168613C7
:1008A000831286138316061283120612341E762CC8
:1008B0008316061383120613831686128312861676
:1008C000B41B6B2C49083F20CE008316880183128D
:1008D0004E088800742C063049073F20CE0083164E
:1008E000880183124E0888003412932C83168612D6
:1008F000831286128316061383120617341B892C63
:1009000049084F20CE008316880183124E088800C4
:10091000922C063049074F20CE008316880183129F
:100920004E0888003416D92C83168612831286123C
:100930008316061383120613341EBC2C83168613EB
:100940008312861383160612831206164B18B12CD7
:1009500049082F20CE008316880183124E08880094
:10096000BA2C063049072F20CE0083168801831247
:100970004E0888003412D92C8316061283120612F0
:100980008316861383128617B41ACF2C49085F206A
:10099000CE008316880183124E088800D82C0630BA
:1009A00049075F20CE008316880183124E08880015
:1009B00034162330CE003F248A150A12EE29103057
:1009C000D600F701FA01D30CD20C031CED2C54080D
:1009D000F7070318FA0A5508FA07FA0CF70CF90C8E
:1009E000F80CD60BE32C8A150A12152A1930CE0002
:1009F0003F24061E0C2D8316061283120612831640
:100A00008612831286162C08BA22CE00831688011D
:100A100083124E088800422D861E1F2D83168612D3
:100A20008312861283160613831206172D08BA2224
:100A3000CE008316880183124E088800422D061FBF
:100A4000322D831606138312061383168613831220
:100A500086172E08BA22CE008316880183124E080C
:100A60008800422D8316861383128613831606127E
:100A7000831206162B08BA22CE0083168801831231
:100A80004E088800080083168615831286194A2DA1
:100A90000430AF008316061583120619512D03305A
:100AA000AF008316861483128618582D0230AF00CB
:100AB00083160614831206185F2D0130AF00AF08AD
:100AC00003198D2D831686138312861383168612BF
:100AD00083128612831606138312061383160612D8
:100AE000831206120330B0000310A70DA80D831661
:100AF000061283120616B00803198A2D3008AB00BF
:100B00000C30AC00AD003008AE00F6241E30CE0034
:100B10003F247B2D0310A80CA70C8A150A121C2A4F
:100B20003508AB003608AC003708AD003808AE0019
:100B300008008316861583128619A22D331AA22D5A
:100B4000331433168316061583120619AB2DB31A08
:100B5000AB2DB314B3168316861483128618B42DE6
:100B6000331BB42D3315331783160614831206185E
:100B7000BD2DB31BBD2DB315B317331ECB2D4108AF
:100B80000319C203C10341084204031DCB2DC20156
:100B9000C830C1003312B31ED92D43080319C40352
:100BA000C30343084404031DD92DC401C830C30046
:100BB000B312331FE72D45080319C603C5034508C3
:100BC0004604031DE72DC601C830C5003313B31F0B
:100BD000F52D47080319C803C70347084804031D38
:100BE000F52DC801C830C700B31308008E30F700D8
:100BF0004F08F8004E08F900FA01F808031D0A2E04
:100C00007908F800F9010830F702F808031D0A2EE8
:100C1000F701122E0310F81B112EF90DF80DF70332
:100C20000A2EF81308004E080319832ED600520826
:100C30000319832ED6070318242E7F30D602031CF7
:100C4000832E0319832E282E8130D6070318832E76
:100C50005608F700F801F901FA014F08DA00DA172F
:100C60005008D9005108D8001830D600D701581CB8
:100C7000512E5508FA07031C432EF90A031D432E73
:100C8000F80A0319D7175408F907031C4A2EF80A63
:100C90000319D7175308D000D0175008F8070318C6
:100CA000D717D70DF80CF90CFA0CDA0CD90CD80CB4
:100CB0000310D60B362E0130F7070318832EF81BCE
:100CC000682EDA0DFA0DF90DF80DF7030319832ECE
:100CD000DA1F792EFA0A031D792EF90A031D792EDF
:100CE000F80A031D792EF80CF90CFA0CF70A03190F
:100CF000832E4F08D7005308D706D71F812EF81729
:100D0000872EF813872EF701F801F901FA01080080
:100D10008E30F7004E08F7024F08F9005008F8002F
:100D2000F917F70803199F2E0310F908031D9B2ECE
:100D3000F80803199F2EF90CF80CF70B942ECF1F0F
:100D4000A62EF809F909F80A0319F90A08009025EE
:100D5000F62499252908323C031DD72EAA08031D25
:100D6000D72EB418D72E2808CF002708CE00F62596
:100D70007A08D1007908D0007808CF007708CE0033
:100D80009A30D5009930D4005930D3007E30D2004B
:100D900013267A08D1007908D0007808CF007708A8
:100DA000CE0088267908A8007808A700B41429087E
:100DB0004B3C031D042FAA08031D042F3419042FD4
:100DC0002808CF002708CE00F6257A08D100790838
:100DD000D0007808CF007708CE009A30D50099303F
:100DE000D4005930D3007E30D20013267A08D100C7
:100DF0007908D0007808CF007708CE0088267908D7
:100E0000A8007808A700341505304A072902031DF9
:100E10000C2FAA080319AF018A150A122D2A0730D0
:100E2000B0000C30AB002A08D3002908D200D5014D
:100E30000A30D4001A2477087A040319522F2A089A
:100E4000D3002908D200D5010A30D4001A2477082B
:100E5000003CCE00CF017A08031C7A0FCF020A3083
:100E60004E07AC002A08D3002908D200D5010A3069
:100E7000D4001A247908CF007808CE007908D3006E
:100E80007808D200D5010A30D4001A247708003C33
:100E9000CE00CF017A08031C7A0FCF0209304E072B
:100EA000AD00722FAC012A08D3002908D200D50169
:100EB0000A30D4001A247908CF007808CE007908C7
:100EC000D3007808D200D5010A30D4001A2477085C
:100ED000003CCE00CF017A08031C7A0FCF020A3003
:100EE0004E07AD000C30AE00B00803197C2FF6247D
:100EF0000F30CE003F24742F08009025F62499254A
:100F000005304A072902031D882FAA080319AF01DB
:060F10008A150A12DC2A1A
:101000008A1190258A158A11F6248A158A11992544
:101010008A1529080C3C031D3A28AA08031D3A2802
:10102000B4183A282808CF002708CE008A11F625E0
:101030008A157A08D1007908D0007808CF0077089F
:10104000CE006630D500D400D3007E30D2008A11A5
:1010500013268A157A08D1007908D0007808CF00C5
:101060007708CE008A1188268A157908A8007808A2
:10107000A700B4142908183C031D4928AA08031D19
:101080004928341949283208A8003108A700341526
:10109000B4102908303C031D7D28AA08031D7D28B3
:1010A000B4187D282808CF002708CE008A11F6251D
:1010B0008A157A08D1007908D0007808CF0077081F
:1010C000CE00CD30D500CC30D4004C30D3007E30B3
:1010D000D2008A1113268A157A08D1007908D00027
:1010E0007808CF007708CE008A1188268A157908FB
:1010F000A8007808A7003411B4142908483C031D3F
:10110000AF28AA08031DAF283419AF282808CF003C
:101110002708CE008A11F6258A157A08D1007908A9
:10112000D0007808CF007708CE006630D500D40014
:10113000D3007E30D2008A1113268A157A08D10096
:101140007908D0007808CF007708CE008A11882669
:101150008A157908A8007808A7003415B410290862
:10116000603C031DE028AA08031DE028B418E0280D
:101170002808CF002708CE008A11F6258A157A089C
:10118000D1007908D0007808CF007708CE0066300B
:10119000D500D400D3007E30D2008A1113268A15E0
:1011A0007A08D1007908D0007808CF007708CE00FF
:1011B0008A1188268A157908A8007808A700B4142F
:1011C00005304A072902031DE928AA08031DE9285A
:1011D000AF018A150A125A2A8A1190258A158A1196
:1011E000F6248A158A1199258A1501302907CE001F
:1011F0002A08CF000318CF0A4F08D3004E08D200A8
:10120000D5010330D4008A111A248A157708CE003C
:101210007A08CF00CE08031D4429CF08031D4429B6
:10122000B4184429AA08031D442929081D3C031C9D
:1012300044292808CF002708CE008A11F6258A15F0
:101240007A08D1007908D0007808CF007708CE005E
:10125000D730D500A330D4007030D3007E30D20018
:101260008A1113268A157A08D1007908D0007808E7
:10127000CF007708CE008A1188268A157908A80041
:101280007808A700B414341101302907CE002A08C9
:10129000CF000318CF0A0330CE05CF01CE08031DBF
:1012A0006D29CF08031D6D2934196D2901302907D7
:1012B000CE002A08CF000318CF0A4F08D3004E08EB
:1012C000D200D5010C30D4008A111A248A1577086F
:1012D0007A0403196D29B410341505304A07290220
:1012E000031D7529AA080319AF018A150A12862A57
:1012F00003081F3983000330A800E830A700AA01C3
:10130000A901AF013310B3103311B3113312B3126B
:101310003313B3133410B901BA01BB01BC01BD01D1
:10132000BE01BF01C001B4103411B411C901643051
:10133000CA003412B4123413B4134B10CD01CC01D3
:1013400083161F149F141F159F1107309C008313D1
:101350000108C0390238810083128B16C0308B041B
:101360008316880183128801AF01C201C830C10011
:10137000C401C300C601C500C801C700AF08031DF2
:10138000F82A0030B41A0130CF000030341B01308D
:101390004F07D0000030B41B01305007D10000309F
:1013A0004B1801305107CE000330D2004E08D30055
:1013B0008A11F5238A1505307807CE002808D30056
:1013C0002708D200D5014E08D4008A111A248A15A4
:1013D0007908A8007808A7008A11472C8A150030E0
:1013E000B41A0130CF000030341B01304F07D00059
:1013F0000030B41B01305007D10000304B180130D1
:101400005107CE000330D2004E08D3008A11F523D5
:101410008A1505307807CE002808D3002708D200A7
:10142000D5014E08D4008A11DF2C8A157908A8004E
:101430007808A7008A11432D8A152F0B492AAA0183
:10144000A90134142808B2002708B100B4103411DF
:10145000AF0803192F2A8A11A72E8A15282A3410BB
:10146000AA08031D3C2A4A08290203183C2A8A11AB
:101470000F278A15AA01A90104304A07AA08031DEB
:10148000432A29020318B4163208A8003108A7001D
:10149000AF012F08023C031D752AAA01A9013414CB
:1014A0002808B2002708B100B4103411AF0803199E
:1014B0005B2A0028562A3410AA08031D682A4A0805
:1014C00029020318682A8A110F278A15AA01A9017F
:1014D00004304A07AA08031D6F2A2902031834178B
:1014E0003208A8003108A700AF012F08033C031DF4
:1014F000A12AAA01A90134142808B2002708B100C2
:10150000B4103411AF080319872AEC28822A34104A
:10151000AA08031D942A4A0829020318942A8A114A
:101520000F278A15AA01A90104304A07AA08031D3A
:101530009B2A29020318B4173208A8003108A70013
:10154000AF012F08043C031DF82AAA01A901341495
:101550002808B2002708B100B41034112808CF00C1
:101560002708CE008A11F6258A157A08D100790855
:10157000D0007808CF007708CE009A30D500993097
:10158000D4001930D3007E30D2008A1113268A1578
:101590007A08D1007908D0007808CF007708CE000B
:1015A0008A1188268A157908A8007808A700AF084C
:1015B0000319DE2A8A117D2F8A15D72A3410AA082A
:1015C000031DEB2A4A0829020318EB2A8A110F2768
:1015D0008A15AA01A90104304A07AA08031DF22AA4
:1015E000290203184B143208A8003108A700AF01E4
:0815F000AA01A901BE29630054
:02400E00713906
:00000001FF
;PIC16F877A
;CRC=E0D2  CREATED="01-dez-24 10:37"
