:100000000D308A00072D0000FF00030E8301A100C0
:100010000A08A0008A010408A2007708A300780853
:10002000A4007908A5007A08A600831383128B1E0A
:100030001B280B192C28220884002308F700240809
:10004000F8002508F9002608FA0020088A00210E89
:100050008300FF0E7F0E09008A110A122F2D0A104D
:100060008A100A1182070834003400340134023443
:1000700004344834403440344134423444340A1067
:100080008A100A1182070034083401340034003425
:1000900000340034483441340034003400340A1051
:1000A0008A100A1182070034013408340034003405
:1000B00000340034413448340034003400340A1031
:1000C0008A100A11820701340034003408341034D5
:1000D00020344134403440344834503460340A10C1
:1000E0008A100A11820704340334023401340034C4
:1000F0000334023401340034033402340134003454
:10010000033402340134003405340434033402343B
:10011000013400340534043403340234013400342F
:10012000083407340634053404340334023401340B
:1001300000340834073406340534043403340234FC
:1001400001340034053404340334023401340034FF
:100150000A340B340B340C340C340A108A100A1194
:100160008207033402340134003400340234013491
:1001700000340634053404340334023401340034CA
:1001800004340334023401340034023401340034C2
:1001900002340134003403340234013400340234B4
:1001A00001340034013400340134003404340334A5
:1001B0000234013400340234013400340534043490
:1001C00003340234013400340A340A340A340B3460
:1001D0000B340C340C340A108A100A11F23E031846
:1001E0008A0A8200033402340134003400340234B9
:1001F0000134003406340534043403340234013449
:10020000003402340134003405340434033402343D
:100210000134003402340134003402340134003437
:100220000734063405340434033402340134003412
:10023000053404340334023401340034023401340C
:100240000034013400340A340A340A340A340A34DB
:100250000B340B340C340C340A148A100A11820744
:1002600002340134003401340034013400340134E8
:1002700000340934083407340634053404340334B4
:1002800002340134003405340434033402340134BC
:1002900000340334023401340034033402340134B2
:1002A00000340234013400340434033402340134A1
:1002B000003408340734063405340434033402347B
:1002C000013400340A340A340A340A340B340B344F
:1002D0000C340C340A148A100A11820701340034D9
:1002E000053404340334023401340034023401345C
:1002F000003401340034053404340334023401344E
:100300000034023401340034013400340234013446
:100310000034013400340134003401340034013439
:10032000003408340734063405340434033402340A
:100330000134003407340634053404340334023401
:10034000013400340A340A340A340A340B340B34CE
:100350000B340C340C340A148A100A11820702344C
:1003600001340034033402340134003402340134E3
:1003700000340134003401340034033402340134D5
:1003800000340234013400340134003402340134C6
:1003900000340134003401340034013400340334B7
:1003A000023401340034083407340634053404348C
:1003B0000234013400340634053404340334023486
:1003C00001340034013400340A340A340A340B3462
:1003D0000B340B340C340C340A148A100A11F33E1B
:1003E00003188A0A820003340234013400340134D1
:1003F0000034033402340134003401340034023454
:100400000134003401340034033402340134003444
:100410000134003403340234013400340134003434
:100420000734063405340434033402340134003410
:100430000134003401340034023401340034053412
:1004400004340334023401340034033402340134FC
:1004500000340A340A340B340B340B340C340C34AF
:100460000A108A140A118207043403340234013456
:1004700000340534043403340234013400340434C9
:1004800003340234013400340534043403340234B8
:1004900001340034033402340134003401340034B4
:1004A0000134003407340634053404340334023490
:1004B0000134003401340034013400340134003498
:1004C0000434033402340134003405340434033476
:1004D0000234013400340A340B340B340B340C3442
:1004E0000C340A108A140A118207023401340034D1
:1004F0000234013400340234013400340234013453
:10050000003403340234013400340334023401343F
:100510000034023401340034013400340134003436
:100520000134003401340034033402340134003423
:10053000013400340434033402340134003406340A
:1005400005340434033402340134003402340134F9
:1005500000340234013400340534043403340234EA
:1005600001340034023401340034023401340034E4
:1005700002340134003402340134003404340334CE
:1005800002340134003402340134003405340434BC
:1005900003340234013400340234013400340134B1
:1005A00000340134003401340034013400340134A7
:1005B00000340B340B340B340C340C340A108A1412
:1005C0000A11E53E03188A0A82000234013400341D
:1005D0000234013400340234013400340234013472
:1005E000003403340234013400340334023401345F
:1005F000003404340334023401340034033402344C
:100600000134003403340234013400340134003442
:100610000134003402340134003401340034013434
:10062000003404340334023401340034023401341D
:100630000034053404340334023401340034023409
:100640000134003402340134003402340134003403
:1006500002340134003402340134003403340234EF
:1006600001340034013400340234013400340334E2
:1006700002340134003402340134003402340134D1
:100680000034013400340A340A340A340A340A3497
:100690000A340B340B340B340C340C340A148A1423
:1006A0000A11820702340134003402340134003468
:1006B000023401340034023401340034033402348F
:1006C0000134003406340534043403340234013474
:1006D0000034033402340134003401340034013472
:1006E0000034013400340234013400340134003465
:1006F0000134003403340234013400340134003452
:100700000234013400340534043403340234013437
:100710000034023401340034023401340034023431
:100720000134003402340134003402340134003422
:10073000023401340034023401340034033402340E
:100740000134003402340134003401340034023402
:1007500001340034033402340134003401340034F1
:10076000013400340A340A340A340A340B340B34AA
:100770000B340C340C340A148A140A11C23E0318C8
:100780008A0A820002340134003402340134003415
:1007900002340134003402340134003403340234AE
:1007A000013400340334023401340034023401349F
:1007B0000034013400340134003403340234013491
:1007C0000034013400340234013400340134003484
:1007D000073406340534043403340234013400345D
:1007E0000534043403340234013400340234013457
:1007F0000034023401340034023401340034023451
:100800000134003402340134003402340134003441
:100810000234013400340134003405340434033428
:10082000023401340034023401340034023401341F
:10083000003404340334023401340034013400340D
:1008400001340034013400340A340A340B340B34DC
:100850000B340C340C340A108A100A158207063443
:1008600005340434033402340134003401340034D8
:1008700007340634053404340334023401340034BC
:1008800003340234013400340234013400340334BC
:10089000023401340034073406340534043403349C
:1008A000023401340034073406340534043403348C
:1008B0000234013400340534043403340234013486
:1008C00000340A340A340B340B340C340C340A1060
:1008D0008A100A15820705340434033402340134C3
:1008E000003401340034013400340534043403345A
:1008F000023401340034033402340134003404344B
:10090000033402340134003403340234013400343B
:10091000033402340134003401340034013400342F
:100920000134003403340234013400340634053415
:10093000043403340234013400340A340A340B34EE
:100940000B340C340C340A108A100A158207043454
:1009500003340234013400340534043403340234E3
:1009600001340034013400340134003403340234DF
:1009700001340034063405340434033402340134C1
:1009800000340334023401340034013400340134BF
:1009900000340334023401340034013400340134AF
:1009A000003407340634053404340334023401348B
:1009B00000340A340A340B340B340C340C340A106F
:1009C0008A100A15E63E03188A0A820003340234AC
:1009D000013400340734063405340434033402345B
:1009E000013400340134003403340234013400345F
:1009F0000834073406340534043403340234013433
:100A00000034033402340134003409340834073428
:100A10000634053404340334023401340034083419
:100A2000073406340534043403340234013400340A
:100A30000A340A340B340B340C340C340A148A1084
:100A40000A1582073F3406345B344F3466346D3404
:100A50007D3407347F346F34083448344934010816
:100A6000833EDA005A088100CB0A0319CC0A280811
:100A70004C02031C992D031D412D27084B02031C1A
:100A8000992DCC01CB01BC11C50A0319C60A350842
:100A9000360403194F2D35080319B603B50333087F
:100AA00034040319902D3C1C902DA90A0319AA0A9D
:100AB00039185E2D2B082C04031D702DB918642DD8
:100AC0002D082E04031D702D39196A2D2F083004AE
:100AD000031D702DB919722D310832040319722DBE
:100AE000B401B3013918782D2B082C0403198A2D71
:100AF000B9187E2D2D082E0403198A2D3919842D3D
:100B00002F08300403198A2DB9198C2D31083204AD
:100B1000031D8C2DB401B3013910B9103911B9116D
:100B2000C608031D972D4508053C0318992DC601DD
:100B3000C5010B118A110A121B28F701F80151088F
:100B400003105218F707F70CF80CD218F707F70C38
:100B5000F80C5219F707F70CF80CD219F707F70C35
:100B6000F80C521AF707F70CF80CD21AF707F70C23
:100B7000F80C521BF707F70CF80CD21BF707F70C11
:100B8000F80C0800F801F901F701FA015408031DF7
:100B9000CC2D53080319E62D1030D5000310D10DCC
:100BA000D20DF70DFA0D54087A02031DD92D530802
:100BB0007702031CE22D5308F702031CFA035408C2
:100BC000FA020314F80DF90DD50BCE2D0800CE0155
:100BD0004D084E020318EE2DCE0AE82D0800450BF5
:100BE000F42DC6080319FB2D4508023C031D5A2E9F
:100BF000C608031D5A2E8316861383128613831686
:100C000006128312061249084A040319302E83166D
:100C100006138312061383168612831286163C1B54
:100C20001C2E4608FA0045083F20CD008316880197
:100C300083124D0888002D2E06304507CD0046084A
:100C4000CE000318CE0A4E08FA004D083F20CF0010
:100C50008316880183124F088800CA01C901592EE2
:100C600083168612831286128316061383120617C2
:100C7000BC1A452E4608FA0045084F20CD008316C1
:100C8000880183124D088800562E06304507CD0096
:100C90004608CE000318CE0A4E08FA004D084F2031
:100CA000CF008316880183124F088800CA010130E3
:100CB000C900B82E83168612831286128316061375
:100CC0008312061349084A0403198F2E83168613CC
:100CD000831286138316061283120616BC1B7B2E04
:100CE0004608FA0045082F20CD008316880183129C
:100CF0004D0888008C2E06304507CD004608CE00F2
:100D00000318CE0A4E08FA004D082F20CF00831694
:100D1000880183124F088800CA01C901B82E8316C2
:100D200006128312061283168613831286173C1A44
:100D3000A42E4608FA0045085F20CD0083168801DE
:100D400083124D088800B52E06304507CD004608B1
:100D5000CE000318CE0A4E08FA004D085F20CF00DF
:100D60008316880183124F088800CA010130C90028
:100D70002330CD00E7258A150A12852D1030D500C5
:100D8000F701FA01D20CD10C031CCC2E5308F70743
:100D90000318FA0A5408FA07FA0CF70CF90CF80CC5
:100DA000D50BC22E8A150A12AC2D1930CD00E725BD
:100DB000061EED2E83160612831206128316861265
:100DC000831286162E08FA002D081E25CD008316E4
:100DD000880183124D088800292F861E022F831652
:100DE00086128312861283160613831206173008A2
:100DF000FA002F081E25CD008316880183124D08A6
:100E00008800292F061F172F831606138312061337
:100E100083168613831286173208FA0031081E25BE
:100E2000CD008316880183124D088800292F831670
:100E300086138312861383160612831206162C0855
:100E4000FA002B081E25CD008316880183124D0859
:100E5000880008008316861583128619322FB40184
:100E60000430B30083160615831206193A2FB40115
:100E70000330B3008316861483128618422FB40100
:100E80000230B30083160614831206184A2FB401E9
:100E90000130B300330834040319832F83168613FB
:100EA0008312861383168612831286128316061304
:100EB000831206138316061283120612B60103303C
:100EC000B5000310A70DA80D83160612831206168F
:100ED000B508031D6E2FB6080319802F3608AC0025
:100EE0003508AB00AE010C30AD00B001AF003608E4
:100EF000B2003508B100D5261E30CD00E725682F99
:100F00000310A80CA70C8A150A12B32D8316861598
:100F1000831286198F2F391A8F2F39143916831699
:100F2000061583120619982FB91A982FB914B916F5
:100F30008316861483128618A12F391BA12F391509
:100F400039178316061483120618AA2FB91BAA2F65
:100F5000B915B917391EB92F3D080319BE03BD03D2
:100F60003D083E04031DB92F3B08BE003A08BD00F2
:100F70003912B91EC82F3F080319C003BF033F0829
:100F80004004031DC82F3B08C0003A08BF00B91237
:100F9000391FD72F41080319C203C1034108420476
:100FA000031DD72F3B08C2003A08C1003913B91FEF
:100FB000E62F43080319C403C30343084404031D75
:0E0FC000E62F3B08C4003A08C300B91308002E
:101000008E30F7004E08F8004D08F900FA01F80894
:10101000031D14287908F800F9010830F702F808D0
:10102000031D1428F7011C280310F81B1B28F90DB9
:10103000F80DF7031428F81308004D0803198D283C
:10104000D500510803198D28D50703182E287F30A5
:10105000D502031C8D2803198D2832288130D5072D
:1010600003188D285508F700F801F901FA014E0818
:10107000D900D9174F08D8005008D7001830D5002C
:10108000D601571C5B285408FA07031C4D28F90A9F
:10109000031D4D28F80A0319D6175308F907031C36
:1010A0005428F80A0319D6175208CF00CF174F0853
:1010B000F8070318D617D60DF80CF90CFA0CD90C52
:1010C000D80CD70C0310D50B40280130F7070318B4
:1010D0008D28F81B7228D90DFA0DF90DF80DF703BC
:1010E00003198D28D91F8328FA0A031D8328F90ABA
:1010F000031D8328F80A031D8328F80CF90CFA0C49
:10110000F70A03198D284E08D6005208D606D61FB6
:101110008B28F8179128F8139128F701F801F901A5
:10112000FA0108008E30F7004D08F7024E08F9006A
:101130004F08F800F917F7080319A9280310F90850
:10114000031DA528F8080319A928F90CF80CF70BBA
:101150009E28CE1FB028F809F909F80A0319F90AE0
:101160000800AA08031DE92829082E3C031CE928C9
:101170002A08FA0029088A116F208A15F800FA0156
:101180007808AB007A08AC002A08FA0029088A110E
:10119000AD208A15F800FA017808AD007A08AE0093
:1011A0002A08FA0029088A11EB208A15F800FA01AA
:1011B0007808AF007A08B0002A08FA0029088A11D6
:1011C0002C218A15F800FA017808B1007A08B200DB
:1011D0003D292F302902CD002A08CE000030031C03
:1011E0000130CE024E08FA004D088A116F208A1590
:1011F000F800FA017808AB007A08AC002F30290219
:10120000CD002A08CE000030031C0130CE024E086B
:10121000FA004D088A11AD208A15F800FA01780805
:10122000AD007A08AE002F302902CD002A08CE008A
:101230000030031C0130CE024E08FA004D088A111E
:10124000EB208A15F800FA017808AF007A08B000A0
:101250002F302902CD002A08CE000030031C0130B7
:10126000CE024E08FA004D088A112C218A15F8008A
:10127000FA017808B1007A08B2008A11D5268A15D9
:101280008A1186278A152908323C031D7029AA086D
:10129000031D7029BC1870292808CE002708CD002E
:1012A00000207A08D0007908CF007808CE007708AF
:1012B000CD009A30D4009930D3005930D2007E301E
:1012C000D1001D207A08D0007908CF007808CE0020
:1012D0007708CD0092207908A8007808A700BC14F0
:1012E00029084B3C031D9D29AA08031D9D293C1973
:1012F0009D292808CE002708CD0000207A08D000BC
:101300007908CF007808CE007708CD009A30D40055
:101310009930D3005930D2007E30D1001D207A0898
:10132000D0007908CF007808CE007708CD00922051
:101330007908A8007808A7003C1505304707F80091
:101340004808FA000318FA0A78082902031DAE2992
:101350007A082A02031DAE29B401B3018A150A12C4
:10136000C72DB6010730B500AC010C30AB002A0820
:10137000D2002908D100D4010A30D3008A11C22535
:101380008A1577087A040319062A2A08D200290840
:10139000D100D4010A30D3008A11C2258A157708FA
:1013A000003CCD00CE017A08031C7A0FCE020A3031
:1013B0004D07AD004E08AE000318AE0A2A08D20051
:1013C0002908D100D4010A30D3008A11C2258A1518
:1013D0007908CE007808CD007908D2007808D100CD
:1013E000D4010A30D3008A11C2258A157708003C3F
:1013F000CD00CE017A08031C7A0FCE0209304D07CA
:10140000AF004E08B0000318B00A2F2AAE01AD019C
:101410002A08D2002908D100D4010A30D3008A1149
:10142000C2258A157908CE007808CD007908D20047
:101430007808D100D4010A30D3008A11C2258A1558
:101440007708003CCD00CE017A08031C7A0FCE024B
:101450000A304D07AF004E08B0000318B00AB201C1
:101460000C30B1003508360403193F2A8A11D526FD
:101470008A150F30CD008A11E7258A15322A080017
:10148000AA08031D782A2908203C031C782A2A0868
:10149000FA0029088A116A218A15F800FA017808E9
:1014A000AB007A08AC002A08FA0029088A11AB219F
:1014B0008A15F800FA017808AD007A08AE002A080B
:1014C000FA0029088A11EC218A15F800FA01780837
:1014D000AF007A08B0002A08FA0029088A113022E1
:1014E0008A15F800FA017808B1007A08B200CC2A0F
:1014F00021302902CD002A08CE000030031C013023
:10150000CE024E08FA004D088A116A218A15F800A9
:10151000FA017808AB007A08AC0021302902CD002E
:101520002A08CE000030031C0130CE024E08FA001B
:101530004D088A11AB218A15F800FA017808AD0030
:101540007A08AE0021302902CD002A08CE000030F2
:10155000031C0130CE024E08FA004D088A11EC211E
:101560008A15F800FA017808AF007A08B000213037
:101570002902CD002A08CE000030031C0130CE0223
:101580004E08FA004D088A1130228A15F800FA0137
:101590007808B1007A08B2008A11D5268A158A1116
:1015A00086278A1529080C3C031DFD2AAA08031D5D
:1015B000FD2ABC18FD2A2808CE002708CD000020EF
:1015C0007A08D0007908CF007808CE007708CD00DF
:1015D0006630D400D300D2007E30D1001D207A08BE
:1015E000D0007908CF007808CE007708CD0092208F
:1015F0007908A8007808A700BC142908183C031D26
:101600000C2BAA08031D0C2B3C190C2B3808A80026
:101610003708A7003C15BC102908303C031D3A2BA5
:10162000AA08031D3A2BBC183A2B2808CE0027081D
:10163000CD0000207A08D0007908CF007808CE00CD
:101640007708CD00CD30D400CC30D3004C30D20060
:101650007E30D1001D207A08D0007908CF007808AC
:10166000CE007708CD0092207908A8007808A7005E
:101670003C11BC142908483C031D662BAA08031D15
:10168000662B3C19662B2808CE002708CD000020C9
:101690007A08D0007908CF007808CE007708CD000E
:1016A0006630D400D300D2007E30D1001D207A08ED
:1016B000D0007908CF007808CE007708CD009220BE
:1016C0007908A8007808A7003C15BC102908603CE0
:1016D000031D912BAA08031D912BBC18912B2808E0
:1016E000CE002708CD0000207A08D0007908CF006E
:1016F0007808CE007708CD006630D400D300D20041
:101700007E30D1001D207A08D0007908CF007808FB
:10171000CE007708CD0092207908A8007808A700AD
:10172000BC1405304707F8004808FA000318FA0A05
:1017300078082902031DA22B7A082A02031DA22B76
:10174000B401B3018A150A12022E2A08FA002908E8
:101750008A1171228A15F800FA017808AB007A081C
:10176000AC002A08FA0029088A11DE228A15F8003E
:10177000FA017808AD007A08AE002A08FA002908B4
:101780008A114E238A15F800FA017808AF007A080A
:10179000B0002A08FA0029088A11BB238A15F8002C
:1017A000FA017808B1007A08B2008A11D5268A15A4
:1017B0008A1186278A1501302907CD002A08CE0014
:1017C0000318CE0A4E08D2004D08D100D4010330D0
:1017D000D3008A11C2258A157708CD007A08CE0079
:1017E000CD08031D242CCE08031D242CBC18242C4A
:1017F000AA08031D242C29081D3C031C242C28089E
:10180000CE002708CD0000207A08D0007908CF004C
:101810007808CE007708CD00D730D400A330D300AD
:101820007030D2007E30D1001D207A08D0007908B7
:10183000CF007808CE007708CD0092207908A80064
:101840007808A700BC143C1101302907CD002A08F4
:10185000CE000318CE0A0330CD05CE01CD08031DFE
:101860004D2CCE08031D4D2C3C194D2C0130290761
:10187000CD002A08CE000318CE0A4E08D2004D082B
:10188000D100D4010C30D3008A11C2258A15770803
:101890007A0403194D2CBC103C1505304707F8009D
:1018A0004808FA000318FA0A78082902031D5E2C7A
:1018B0007A082A02031D5E2CB401B3018A150A12AC
:1018C0003D2EAA08031D992C2908313C031C992C94
:1018D0002A08FA0029088A112B248A15F800FA012F
:1018E0007808AB007A08AC002A08FA0029088A11A7
:1018F00067248A15F800FA017808AD007A08AE006E
:101900002A08FA0029088A11A3248A15F800FA0186
:101910007808AF007A08B0002A08FA0029088A116E
:10192000DF248A15F800FA017808B1007A08B200BD
:10193000ED2C32302902CD002A08CE000030031CE5
:101940000130CE024E08FA004D088A112B248A1568
:10195000F800FA017808AB007A08AC0032302902AE
:10196000CD002A08CE000030031C0130CE024E0804
:10197000FA004D088A1167248A15F800FA017808E0
:10198000AD007A08AE0032302902CD002A08CE0020
:101990000030031C0130CE024E08FA004D088A11B7
:1019A000A3248A15F800FA017808AF007A08B0007D
:1019B00032302902CD002A08CE000030031C01304D
:1019C000CE024E08FA004D088A11DF248A15F8006D
:1019D000FA017808B1007A08B2008A11D5268A1572
:1019E0008A1186278A1505304707F8004808FA004B
:1019F0000318FA0A78082902031D042D7A082A021E
:101A0000031D042DB401B3018A150A129B2E03088D
:101A10001F3983000330A800E830A700AA01A901FC
:101A2000B401B3013910B9103911B9113912B91211
:101A30003913B913BB01C830BA003C10BC103C11BB
:101A4000BC113B08BE003A08BD003B08C0003A0884
:101A5000BF003B08C2003A08C1003B08C4003A0876
:101A6000C300C601C501C8016430C700CA01C9016D
:101A70003C12BC123C13BC13CC01CB0183161F14C7
:101A80009F141F159F1107309C0083130108C03954
:101A90000238810083128B16C0308B0483168801B4
:101AA00083128801B401B30133083404031DC12E2D
:101AB00000303C1A0130CE000030BC1A01304E0715
:101AC000CF0000303C1B01304F07D0000030BC1B62
:101AD00001305007CD000330D1004D08D2008A11EB
:101AE0009D258A1505307807CD002808D2002708E3
:101AF000D100D4014D08D3008A11C2258A15790876
:101B0000A8007808A7008A11EF2D8A1500303C1A2A
:101B10000130CE000030BC1A01304E07CF0000303B
:101B20003C1B01304F07D0000030BC1B0130500778
:101B3000CD000330D1004D08D2008A119D258A15B1
:101B400005307807CD002808D2002708D100D4013D
:101B50004D08D3008A11BE2E8A157908A80078088E
:101B6000A7008A112A2F8A15330BED2DB408031D07
:101B7000ED2DAA01A9013C142808B8002708B700D8
:101B8000BC103C11330834040319C82DB128C22DF0
:101B90003C102A084802031CD62D031DD32D4708EC
:101BA00029020318D62DB121AA01A9010430470743
:101BB000F8004808FA000318FA0A7A082A02031CF7
:101BC000E72D031DE62D7808290203183C16380876
:101BD000A8003708A700B401B3013308023C031D75
:101BE000282EB408031D282EAA01A9013C14280898
:101BF000B8002708B700BC103C113308340403199F
:101C0000032E402AFD2D3C102A084802031C112EE9
:101C1000031D0E2E470829020318112EB121AA0117
:101C2000A90104304707F8004808FA000318FA0A27
:101C30007A082A02031C222E031D212E780829026D
:101C40000318BC163808A8003708A700B401B30170
:101C50003308033C031D632EB408031D632EAA0141
:101C6000A9013C142808B8002708B700BC103C1193
:101C70003308340403193E2EA52B382E3C102A08B5
:101C80004802031C4C2E031D492E47082902031845
:101C90004C2EB121AA01A90104304707F8004808D9
:101CA000FA000318FA0A7A082A02031C5D2E031DA3
:101CB0005C2E7808290203183C173808A80037085A
:101CC000A700B401B3013308043C031DC12EB408BE
:101CD000031DC12EAA01A9013C142808B800270839
:101CE000B700BC103C112808CE002708CD0000200A
:101CF0007A08D0007908CF007808CE007708CD00A8
:101D00009A30D4009930D3001930D2007E30D100FF
:101D10001D207A08D0007908CF007808CE00770817
:101D2000CD0092207908A8007808A7003308340471
:101D300003199C2E612C962E3C102A084802031C85
:101D4000AA2E031DA72E470829020318AA2EB12187
:101D5000AA01A90104304707F8004808FA0003184F
:101D6000FA0A7A082A02031CBB2E031DBA2E780831
:101D700029020318BC173808A8003708A700B401C7
:0A1D8000B301AA01A901542D63006C
:02400E00713906
:00000001FF
;PIC16F877A
;CRC=C36D  CREATED="30-nov-24 18:27"
